:020000040000FA
:040000001CEF00F001
:100008005E82F2AC13D09EA60AD000017E057F1155
:10001800D8A404D0000E7F6F000E7E6F9E96A1A616
:1000280005D0000E5D6E010E5C6EA1965E92110009
:0400380063EF0BF077
:1002000000423A30782530347800473A307825304B
:10021000347800493A30782530347800523A3078D2
:10022000253034780000000E046E2A0E036E000E96
:10023000066E000E056EF8EC09F003C0D0F004C0A5
:10024000D1F00001D051D111D8A406D0000E17EC86
:100250000BF08A0E17EC0BF0340E0001BC6FF10EA0
:10026000E82EFED7BC2FFCD700D0000E046E2A0E5D
:10027000036E000E066E000E056E31EC0AF003C030
:10028000D0F004C0D1F00001D051D111D8A406D0D3
:10029000000E17EC0BF00A0E17EC0BF0EBEC0CF069
:1002A000030E0001BD6F700EBC6F5C0EE82EFED712
:1002B000BC2FFCD7BD2FFAD700F0000E046E2A0E1B
:1002C000036E000E066E000E056EF8EC09F003C01A
:1002D000D0F004C0D1F00001D051D111D8A403D086
:1002E000030E17EC0BF0000E046E2A0E036E000EC8
:1002F000066E010E056E31EC0AF0000E0001D36FA0
:10030000000ED26F000E046E000E036EC4EC0AF0F5
:10031000035000016C6F000E046E000E036EC4ECFF
:100320000AF003500001686F68516CC0BCF0BD6BEF
:10033000BCC0BDF0BC6BBC11606FBD51616FD24BD6
:10034000D32B6C0ED225D96E000ED321DA6E000E9F
:10035000046E000E036EC4EC0AF00350DF6E680EEC
:100360000001D225D96E000ED321DA6E000E046E84
:10037000000E036EC4EC0AF00350DF6E6C0E000139
:10038000D225D96E000ED321DA6EDF50BC6FBC517E
:10039000BE6FBD6B680ED225D96E000ED321DA6E0A
:1003A000DF50BF6FBF51BD13000EBE13D890D235C2
:1003B000D96ED335DA6E600ED926000EDA22BDC0B2
:1003C000DEFFBEC0DDFFD24BD32B6C0ED225D96E23
:1003D000000ED321DA6E000E046E000E036EC4EC24
:1003E0000AF00350DF6E680E0001D225D96E000EB0
:1003F000D321DA6E000E046E000E036EC4EC0AF018
:100400000350DF6E6C0E0001D225D96E000ED32191
:10041000DA6EDF50BC6FBC51BE6FBD6B680ED2256B
:10042000D96E000ED321DA6EDF50BF6FBF51BD13FE
:10043000000EBE13D890D235D96ED335DA6E600E69
:10044000D926000EDA22BDC0DEFFBEC0DDFFD24BD2
:10045000D32B6C0ED225D96E000ED321DA6E000E8E
:10046000046E000E036EC4EC0AF00350DF6E680EDB
:100470000001D225D96E000ED321DA6E000E046E73
:10048000010E036EC4EC0AF00350DF6E6C0E000127
:10049000D225D96E000ED321DA6EDF50BC6FBC516D
:1004A000BE6FBD6B680ED225D96E000ED321DA6EF9
:1004B000DF50BF6FBF51BD13000EBE13D890D235B1
:1004C000D96ED335DA6E600ED926000EDA22BDC0A1
:1004D000DEFFBEC0DDFFEBEC0CF0F7EC0BF0680EBE
:1004E0000001BC6FE40EE82EFED7BC2FFCD700F055
:1004F000000E0001D36F000ED26FC00EAC6F000E65
:10050000AD6F1C0EAE6F020EAF6F60C0B0F061C079
:10051000B1F0EEEC0AF0C00E086E000E096E69EC48
:100520000AF0680E0001BC6FE40EE82EFED7BC2F67
:10053000FCD700F00001D24BD32BC00EAC6F000EE5
:10054000AD6F0A0EAE6F020EAF6FD890D235D96E76
:10055000D335DA6E600ED926000EDA22DECFB0F087
:10056000DDCFB1F0EEEC0AF0C00E086E000E096EA1
:1005700069EC0AF0680E0001BC6FE40EE82EFED7AD
:10058000BC2FFCD700F00001D24BD32B000E0C6E19
:10059000000E0B6E000E0E6E010E0D6E59EC0CF07F
:1005A000680E0001BC6FE40EE82EFED7BC2FFCD70E
:1005B00000F0C00E0001AC6F000EAD6F010EAE6F0B
:1005C000020EAF6FD890D235D96ED335DA6E600E89
:1005D000D926000EDA22DECFB0F0DDCFB1F0EEEC9E
:1005E0000AF0C00E086E000E096E69EC0AF0680E83
:1005F0000001BC6FE40EE82EFED7BC2FFCD700F044
:100600000001D24BD32BC00EAC6F000EAD6F130E9A
:10061000AE6F020EAF6FD890D235D96ED335DA6E89
:10062000600ED926000EDA22DECFB0F0DDCFB1F0B9
:10063000EEEC0AF0C00E086E000E096E69EC0AF0CE
:10064000680E0001BC6FE40EE82EFED7BC2FFCD76D
:1006500000F01200030E0001BD6F080EBC6F770E94
:10066000E82EFED7BC2FFCD7BD2FFAD7000E046EA4
:100670002A0E036E000E066E000E056EF8EC09F0F1
:1006800003C0D0F004C0D1F00001D051D111D8A4E2
:1006900003D0030E17EC0BF0000E046E2A0E036E4F
:1006A000000E066E010E056E31EC0AF0000E000120
:1006B000D36F000ED26F000E046E000E036EC4ECFA
:1006C0000AF0035000016C6F000E046E000E036E02
:1006D000C4EC0AF003500001686F68516CC0BCF0B4
:1006E000BD6BBCC0BDF0BC6BBC11606FBD51616F18
:1006F000D24BD32B6C0ED225D96E000ED321DA6EDD
:10070000000E046E000E036EC4EC0AF00350DF6EA0
:10071000680E0001D225D96E000ED321DA6E000ECC
:10072000046E000E036EC4EC0AF00350DF6E6C0E14
:100730000001D225D96E000ED321DA6EDF50BC6FD6
:10074000BC51BE6FBD6B680ED225D96E000ED32191
:10075000DA6EDF50BF6FBF51BD13000EBE13D890CD
:10076000D235D96ED335DA6E600ED926000EDA2274
:10077000BDC0DEFFBEC0DDFFD24BD32B6C0ED22539
:10078000D96E000ED321DA6E000E046E000E036ED9
:10079000C4EC0AF00350DF6E680E0001D225D96E5A
:1007A000000ED321DA6E000E046E000E036EC4EC50
:1007B0000AF00350DF6E6C0E0001D225D96E000ED8
:1007C000D321DA6EDF50BC6FBC51BE6FBD6B680EBB
:1007D000D225D96E000ED321DA6EDF50BF6FBF5124
:1007E000BD13000EBE13D890D235D96ED335DA6E54
:1007F000600ED926000EDA22BDC0DEFFBEC0DDFFCE
:10080000D24BD32B6C0ED225D96E000ED321DA6ECB
:10081000000E046E000E036EC4EC0AF00350DF6E8F
:10082000680E0001D225D96E000ED321DA6E000EBB
:10083000046E010E036EC4EC0AF00350DF6E6C0E02
:100840000001D225D96E000ED321DA6EDF50BC6FC5
:10085000BC51BE6FBD6B680ED225D96E000ED32180
:10086000DA6EDF50BF6FBF51BD13000EBE13D890BC
:10087000D235D96ED335DA6E600ED926000EDA2263
:10088000BDC0DEFFBEC0DDFFEBEC0CF0F7EC0BF003
:10089000680E0001BC6FE40EE82EFED7BC2FFCD71B
:1008A00000F0000E0001D36F000ED26FC00EAC6FCF
:1008B000000EAD6F1C0EAE6F020EAF6F60C0B0F0D9
:1008C00061C0B1F0EEEC0AF0C00E086E000E096EC9
:1008D00069EC0AF0340E0001BC6FF10EE82EFED771
:1008E000BC2FFCD700D00001D24BD32BC00EAC6F75
:1008F000000EAD6F0A0EAE6F020EAF6FD890D235FC
:10090000D96ED335DA6E600ED926000EDA22DECF2C
:10091000B0F0DDCFB1F0EEEC0AF0C00E086E000EC4
:10092000096E69EC0AF0340E0001BC6FF10EE82E7E
:10093000FED7BC2FFCD700D00001D24BD32B000E2A
:100940000C6E000E0B6E000E0E6E010E0D6E59EC4D
:100950000CF0340E0001BC6FF10EE82EFED7BC2F58
:10096000FCD700D0C00E0001AC6F000EAD6F010EC1
:10097000AE6F020EAF6FD890D235D96ED335DA6E26
:10098000600ED926000EDA22DECFB0F0DDCFB1F056
:10099000EEEC0AF0C00E086E000E096E69EC0AF06B
:1009A000340E0001BC6FF10EE82EFED7BC2FFCD731
:1009B00000D00001D24BD32BC00EAC6F000EAD6F38
:1009C000130EAE6F020EAF6FD890D235D96ED335FD
:1009D000DA6E600ED926000EDA22DECFB0F0DDCF5F
:1009E000B1F0EEEC0AF0C00E086E000E096E69EC74
:1009F0000AF0340E0001BC6FF10EE82EFED7BC2FBA
:100A0000FCD700D0120045C0D9FF46C0DAFFDECFC8
:100A1000F6FFDDCFF7FF0800F550250AD8A458D11E
:100A200045C0D9FF46C0DAFFDE2A000EDD22000EE7
:100A30000001736F000E726F72C076F073C077F0B2
:100A400074697569000E576E000E19D00001768129
:100A500045C0D9FF46C0DAFFDE2A000EDD2232D0C3
:100A600000017683F5D700017685F2D700017687FD
:100A7000EFD700017689ECD7000E576E010E566E47
:100A800021D045C0D9FF46C0DAFFDECFF6FFDDCF6B
:100A9000F7FF0800F550496E4A6A4A50000AD8A488
:100AA000EBD74950200AD8B4E1D7030AD8B4E1D72C
:100AB000080AD8B4D8D7060AD8B4C8D71D0AD8B4FB
:100AC000CFD7DAD756505710D8B4DBD7000176B15C
:100AD000769345C0D9FF46C0DAFFDECFF6FFDDCF03
:100AE000F7FF0800F5502A0AD8A423D045C0D9FF43
:100AF00046C0DAFFDE2A000EDD2247C0D9FF48C01B
:100B0000DAFFDFCF49F0020EDE26DFCF4AF0000E1B
:100B1000DD2249C0D9FF4AC0DAFFDECF72F0DDCF57
:100B200073F073AF3FD07681726D731FD8B0732BA3
:100B300039D045C0D9FF46C0DAFFDECF08F0DDCF9F
:100B400009F048EC08F008C072F009C073F007D053
:100B500045C0D9FF46C0DAFFDE2A000EDD22D00EE6
:100B6000496EFF0E4A6E45C0D9FF46C0DAFFDECFA0
:100B7000F6FFDDCFF7FF0800F5504B6E4C6A495089
:100B80004B264A504C224C5006E10A0E4B5CD8B022
:100B900002D0010E01D0000E586E596A58505910FB
:100BA000D8A4D6D745C0D9FF46C0DAFFDECFF6FFBE
:100BB000DDCFF7FF0800F550780AD8B40DD045C056
:100BC000D9FF46C0DAFFDECFF6FFDDCFF7FF080022
:100BD000F550580AD8A44DD045C0D9FF46C0DAFF19
:100BE000DECFF6FFDDCFF7FF0800F5CF55F045C0AB
:100BF000D9FF46C0DAFFDE2A000EDD2247C0D9FF4A
:100C000048C0DAFFDFCF49F0020EDE26DFCF4AF020
:100C1000000EDD2249C0D9FF4AC0DAFFDECF4BF01B
:100C2000DDCF4CF04BC04DF04CC04EF04F6A506AD7
:100C3000516A526A536A546A43C01CF044C01DF0A2
:100C40004DC01EF04EC01FF04FC020F050C021F02C
:100C500051C022F052C023F053C024F054C025F0FC
:100C600055C026F082EC06F01CC043F01DC044F0D5
:100C7000120045C0D9FF46C0DAFFDECFF6FFDDCF58
:100C8000F7FF0800F550250AD8A416D045C0D9FFB3
:100C900046C0DAFFDE2A000EDD22000E026E250EAF
:100CA000016E43C003F044C004F05BEC09F0000E99
:100CB000446E010E436E120045C0D9FF46C0DAFFF4
:100CC000DE2A000EDD22000E446E000E436E12007E
:100CD00045C0D9FF46C0DAFFDECFF6FFDDCFF7FF14
:100CE0000800F550016E026A43C003F044C004F0EE
:100CF0005BEC09F045C0D9FF46C0DAFFDE2A000EE2
:100D0000DD22D5D7000175AF769375BF05D075513B
:100D100008E17405D8B005D0000E346E010E336EB4
:100D200004D074C033F075C034F072C035F073C0B5
:100D300036F076A904D0FE0E3526FF0E36221EC0F0
:100D400037F01FC038F020C039F021C03AF022C07F
:100D50003BF023C03CF024C03DF025C03EF0000E27
:100D6000406E1F0E3F6E000EA36F93D03F06D8A0BB
:100D700040060F0E3714416E426A42BE08D0425000
:100D800004E10A0E415CD8A002D0570E01D0300E0B
:100D90004124416E000E4220426EBF0E276EFF0EB0
:100DA000286E2650296E2A6A2750292628502A2282
:100DB0002A5006E11A0E295CD8B002D0010E01D0EB
:100DC000000E2F6E306A2F503010D8B427D09F0EEF
:100DD000276EFF0E286E200E4110296E000E421065
:100DE0002A6E2750292628502A222A5006E11A0E58
:100DF000295CD8B002D0010E01D0000E316E326AEB
:100E000031503210D8B40AD041C007F042C008F0C7
:100E10003EEC0BF007C041F008C042F0840E3F24C6
:100E2000D96E000E4020DA6E41C0DFFF3306D8A035
:100E300034063506D8A0360637C027F038C028F06B
:100E400039C029F03AC02AF03BC02BF03CC02CF04E
:100E50003DC02DF03EC02EF0050E09D0D8902E32A8
:100E60002D322C322B322A32293228322732E82EE8
:100E7000F5D727C037F028C038F029C039F02AC08C
:100E80003AF02BC03BF02CC03CF02DC03DF02EC002
:100E90003EF040BE21D0405004E1020E3F5CD8A09D
:100EA0001BD03750381039103A103B103C103D1011
:100EB0003E10D8A45BD734BE05D0345002E13304D1
:100EC000D8B054D736BE08D0365003E13504D8A088
:100ED00003D0000176B34AD7000176A916D03F06A9
:100EE000D8A04006840E3F24D96E000E4020DA6E52
:100EF00026C0DFFF3F06D8A04006840E3F24D96EEF
:100F0000000E4020DA6E300EDF6E1CC011F01DC0E6
:100F100012F0840E3F24136E000E4020146E35C074
:100F200015F036C016F0ABEC09F011C01CF012C081
:100F30001DF01200F4EC0CF0F28EF28C8A9E000E82
:100F4000026E000E016E85EC0CF0000E0C6E000EB1
:100F50000B6E000E0E6E320E0D6E000E106E010E38
:100F60000F6E000E126E100E116EE8EC08F08A8EF5
:100F70008AAE02D0010E01D0000EFF0A0001D46F2C
:100F8000D433D4338A50D4197F0BD4198A6EF7EC3A
:100F90000BF0030E0001D56F080ED46F770EE82E0C
:100FA000FED7D42FFCD7D52FFAD7000E0C6E000E2B
:100FB0000B6E000E0E6E000E0D6E59EC0CF0030E53
:100FC0000001D56F080ED46F770EE82EFED7D42F10
:100FD000FCD7D52FFAD7DA0E086E000E096E69EC31
:100FE0000AF0150E0001D56F4B0ED46FBE0EE82E21
:100FF000FED7D42FFCD7D52FFAD700F0000E0C6EF9
:10100000000E0B6E000E0E6E010E0D6E59EC0CF004
:10101000D00E0001D46FC90EE82EFED7D42FFCD716
:1010200000D0EB0E086E000E096E69EC0AF0150E8A
:101030000001D56F4B0ED46FBE0EE82EFED7D42F15
:10104000FCD7D52FFAD700F0010EA3EC0BF0050E5C
:101050000001D56F0F0ED46FF10EE82EFED7D42FFE
:10106000FCD7D52FFAD713EC01F02AEC03F0030ECE
:101070000001615DD8A002D08A8E08D0030E655DA4
:10108000D8A003D08B8E8A9EF0D78A9E8B9EEDD7F8
:10109000000E166E000E156E000E0F6E000E0E6E18
:1010A00002D0084A092A010E146E08C0F6FF09C0D2
:1010B000F7FF0800F550200AD8B418D0F70E0A6ED2
:1010C000FF0E0B6E08C0F6FF09C0F7FF0800F550D1
:1010D0000C6E0D6A0A500C260B500D220D5004E1C7
:1010E000050E0C5CD8A002D0000E146E14C010F0D7
:1010F000116A10501110D8B408D0D3D7000E0F6E5B
:10110000010E0E6E084A092A2ED008C0F6FF09C04B
:10111000F7FF0800F5500A6E0B6A0B50000AD8A4BE
:1011200022D00A502B0AD8B4EDD7060AD8B4E6D795
:101130001AD015C001F016C002F0000E046E0A0E9F
:10114000036EAFEC0CF008C0F6FF09C0F7FF080013
:10115000F550015E000E025A300E0124156E000E8D
:101160000220166ECFD7D00E0A6EFF0E0B6E08C08F
:10117000F6FF09C0F7FF0800F5500C6E0D6A0A5023
:101180000C260B500D220D5006E10A0E0C5CD8B057
:1011900002D0010E01D0000E126E136A125013100D
:1011A000D8A4C7D70E500F10D8A40DD015C00AF080
:1011B00016C00BF00A1E0B1E0A4A0B2A0AC008F0C2
:1011C0000BC009F0120015C008F016C009F012009B
:1011D000090E146E1E0E136EE40EE82EFED7132EAB
:1011E000FCD7142EFAD700D011C05AF012C05BF011
:1011F000000E026E040E016ED1EC0CF0000E000128
:101200007B6F380E7A6F7A51A3EC0BF0390EA3EC9A
:101210000BF0140EA3EC0BF00F0E0D14136E000E5A
:101220000E14146E700E1310166E1450176E1650A6
:10123000A3EC0BF00DC013F00EC014F0040E156EED
:10124000143414321332152EFBD7030E1316000E6E
:101250001416500E1310166E1450176E0B040C104B
:10126000D8A405D0080E1610166E1750176E0F046E
:101270001010D8A405D0040E1610166E1750176E55
:1012800016C078F017C079F0560EA3EC0BF06C0E78
:10129000A3EC0BF0000E026E140E016ED1EC0CF0FC
:1012A00000017A51A3EC0BF0010EA3EC0BF00C0E35
:1012B000A3EC0BF0120003500410D8B404D0035078
:1012C0000410D8A404D0015009EC0DF0120020EE57
:1012D00004F00350D9260450DA22DE50DE10D8B4D0
:1012E00016D020EE04F00350D9260450DA2210EE76
:1012F00002F00350E1260450E222DE50E65CE650A4
:10130000800A096EDE50800A0958D8B0120020EE1B
:1013100002F00350D9260450DA22DECF05F0DDCFEB
:1013200006F003C0D9FF04C0DAFFDECF07F0DDCF3F
:1013300008F005500724D96E06500820DA6E01C067
:10134000DFFF20EE02F00350D9260450DA22DE2A15
:10135000000EDD221200000176A10AD013C00AF0AF
:1013600014C00BF011C00CF012C00DF0C1EC0BF06A
:1013700016BE05D015C01AF016C01BF004D0000E22
:101380001B6E000E1A6E000E196E000E186E0CD039
:10139000000E026E200E016E11C003F012C004F0A8
:1013A0005BEC09F0184A192A1A50185C1950800A87
:1013B000176E1B50800A1758D8A0EAD7000176B1E3
:1013C0000AD013C00AF014C00BF011C00CF012C008
:1013D0000DF0C1EC0BF013C001F014C002F09AEC58
:1013E0000CF01A500124116E1B500220126E1200D4
:1013F000000E5D6E000E5C6E050EE0EC0CF0C5801C
:10140000050EE0EC0CF05C045D10D8A403D003687A
:1014100004681200000E00017F6F010E7E6F9E9621
:101420000350020DF3500524C96E08D0060E076E56
:10143000300EE82EFED7072EFCD700D000017E51DB
:101440007F11D8A4F3D75C045D10D8B4E0D7C5AC45
:1014500003D0076A072A01D0076A0750036E046A9F
:101460001200000E5D6E000E5C6E050EE0EC0CF0DE
:10147000C582050EE0EC0CF05C045D10D8A403D02E
:10148000036804681200000E00017F6F010E7E6F7A
:101490000350020DF3500524C96E08D0060E076EE6
:1014A000300EE82EFED7072EFCD700D000017E516B
:1014B0007F11D8A4F3D75C045D10D8B4E1D7C5ACD4
:1014C00003D0076A072A01D0076A0750036E046A2F
:1014D0001200000E046E3E0E036E000E066E000E2D
:1014E000056EF8EC09F003C00BF004C00CF00B50D3
:1014F0000C10D8A41BD0400E17EC0BF010D008C075
:10150000D9FF09C0DAFFDF5017EC0BF0084A092AAF
:10151000340E0A6EF20EE82EFED70A2EFCD708C053
:10152000D9FF09C0DAFFDF50D8A4E9D7EBEC0CF003
:101530001200A6C0AAF0A7C0ABF0000E0001716FA8
:10154000000E706F13D0A4C043F0A5C044F0AA0EE3
:10155000456E000E466EA8C047F0A9C048F003ECE7
:1015600005F043500001702744507123AAC0F6FFD4
:10157000ABC0F7FF0800F5500009D8A4E4D770C04D
:10158000A4F071C0A5F01200000E5D6E000E5C6E3E
:10159000050EE0EC0CF0C586040EE0EC0CF05C04EB
:1015A0005D10D8A403D0036804681200C9CF05F009
:1015B000066A050EE0EC0CF05C045D10D8A403D0C4
:1015C00003680468120003B002D0C59A01D0C58A2E
:1015D000C58805C003F006C004F01200B00E00017B
:1015E000B46F000EB56FACC0B6F0ADC0B7F0000E72
:1015F000B96F000EB86F000EBB6F000EBA6FB60E5B
:10160000A46F000EA56FAEC0A6F0AFC0A7F0B40ED9
:10161000A86F000EA96F99EC0AF00001B851AC2533
:10162000D96EB951AD21DA6E000EDF6E1200046E74
:10163000000E5D6E000E5C6E050EE0EC0CF05C04BE
:101640005D10D8B41200000E00017F6F010E7E6F96
:1016500004C0C9FF08D0060E036E300EE82EFED778
:10166000032EFCD700D000017E517F11D8A4F3D700
:101670005C045D10D8B41200C55012009F0E096EB4
:10168000FF0E0A6E07C00BF008C00CF009500B26C5
:101690000A500C220C5006E11A0E0B5CD8B002D096
:1016A000010E01D0000E0D6E0E6A0D500E10D8B452
:1016B00005D05F0E0714076E086A120007C007F016
:1016C00008C008F01200840EF66E190EF76E000EB8
:1016D000F86E00EED6F010EE1EF00900F5CFEEFF2A
:1016E000E550E150FAE100EE60F0440EEE6AE806E3
:1016F000FDE15D6A5C6A5B6A5A6A5E905E92000E0A
:10170000F86E00019AEF07F0010E076E200E011827
:101710000210D8B414D0F70E036EFF0E046E01C091
:1017200005F002C006F003500526045006220650BC
:1017300004E1050E055CD8A002D0000E076E07C0BC
:1017400001F0026A12000A6E000E046E3E0E036E75
:10175000000E066E000E056EF8EC09F003C008F0EE
:1017600004C009F008500910D8A406D0800E17EC68
:101770000BF00A5017EC0BF0EBEC0CF002EC0DF058
:101780001200000E106E000E0F6E0BD00EC001F096
:10179000026A0CC003F00DC004F05BEC09F00F4AC4
:1017A000102A0F500A24D96E10500B20DA6EDF5029
:1017B0000E6E0E50D8B41200E9D79F0E036EFF0EC6
:1017C000046E200E0110056E000E0210066E03500E
:1017D000052604500622065006E11A0E055CD8B014
:1017E00002D0010E01D0000E016E026A1200010E3D
:1017F000A3EC0BF0060E0B6EB60EE82EFED70B2EEA
:10180000FCD7020EA3EC0BF0060E0B6EB60EE82E04
:10181000FED70B2EFCD7000E00017D6F000E7C6FF3
:1018200012009F0E036EFF0E046E01C005F002C091
:1018300006F00350052604500622065006E11A0E53
:10184000055CD8B002D0010E01D0000E016E026A14
:101850001200BF0E036EFF0E046E01C005F002C041
:1018600006F00350052604500622065006E11A0E23
:10187000055CD8B002D0010E01D0000E016E026AE4
:101880001200D00E036EFF0E046E01C005F002C000
:1018900006F00350052604500622065006E10A0E03
:1018A000055CD8B002D0010E01D0000E016E026AB4
:1018B0001200D6C00FF0D7C010F0D8C011F0D9C0B8
:1018C00012F0D8900D34D96E0E34DA6E0F0ED92680
:1018D000000EDA22DF500B248009A3EC0BF012007B
:1018E000000E896E000E8A6E000E8B6E370E926EA1
:1018F000700E936E7F0E946E7E68090E7F6E500E92
:10190000786E000E776EF19E1200280EC66E800E65
:10191000C76E01500210D8A403D0270EC86E03D0A2
:10192000090EC86EC79E9D86A086F28CF28E9E968A
:10193000A196120001C003F002C004F002D0014AD7
:10194000022A01C0D9FF02C0DAFFDF50D8A4F7D7BE
:101950000350015C016E04500258026E12000150E7
:101960000302F3CF05F0F4CF06F001500402F35068
:10197000062602500302F350062605C001F006C0F9
:1019800002F012000000400048656C6C6F2C205083
:10199000494320576F726C640057616B2D74656307
:1019A0006800340E036EF20EE82EFED7032EFCD72D
:1019B0000106D8A0020601500210D8B41200F1D7D7
:1019C000026EC7500214016EC5501F0B01100009B2
:1019D000D8B41200F6D7000E5D6E000E5C6E050ED8
:1019E000E0EC0CF0C584120007EC0DF070EC0CF08C
:1019F000FBEC0CF01200700ED36E040ED26E000ED3
:101A00009B6E1200220EE82EFED700D01200D09E50
:041A100012001200AE
:020000040020DA
:08000000FFFFFFFFFFFFFFFF00
:020000040030CA
:0E000000FF281F1EFF0881FF03C003E003401E
:00000001FF
